{
     "address": "0x580b978cC31aDb5065f9e8401f076b7Da7eD4b4A",
     "abi": [
          {
               "inputs": [],
               "name": "PANCAKE_V3_FACTORY_BSC",
               "outputs": [
                    {
                         "internalType": "address",
                         "name": "",
                         "type": "address"
                    }
               ],
               "stateMutability": "view",
               "type": "function"
          },
          {
               "inputs": [],
               "name": "PANCAKE_V3_FACTORY_ETH",
               "outputs": [
                    {
                         "internalType": "address",
                         "name": "",
                         "type": "address"
                    }
               ],
               "stateMutability": "view",
               "type": "function"
          },
          {
               "inputs": [],
               "name": "WETH_BSC",
               "outputs": [
                    {
                         "internalType": "address",
                         "name": "",
                         "type": "address"
                    }
               ],
               "stateMutability": "view",
               "type": "function"
          },
          {
               "inputs": [],
               "name": "WETH_ETH",
               "outputs": [
                    {
                         "internalType": "address",
                         "name": "",
                         "type": "address"
                    }
               ],
               "stateMutability": "view",
               "type": "function"
          },
          {
               "inputs": [
                    {
                         "internalType": "address",
                         "name": "WETH",
                         "type": "address"
                    },
                    {
                         "internalType": "address",
                         "name": "quoteAsset",
                         "type": "address"
                    },
                    {
                         "internalType": "address",
                         "name": "pancakeFactory",
                         "type": "address"
                    },
                    {
                         "internalType": "uint128",
                         "name": "baseAmount",
                         "type": "uint128"
                    },
                    {
                         "internalType": "bool",
                         "name": "inverse",
                         "type": "bool"
                    }
               ],
               "name": "getQuoteFromSqrtRatioX96",
               "outputs": [
                    {
                         "internalType": "uint256",
                         "name": "quoteAmount",
                         "type": "uint256"
                    }
               ],
               "stateMutability": "view",
               "type": "function"
          }
     ],
     "transactionHash": "0x06b1e93587603e30c137b0f718d6417288bd97f9e86d978c2d89a229b76b1b83",
     "args": [],
     "numDeployments": 2,
     "solcInputHash": "238320169f6b702d822e2e2ca6fd7227",
     "bytecode": "0x6080806040523461001a576107569081610020823930815050f35b600080fdfe60806040818152600436101561001457600080fd5b600090813560e01c9283634ea5fc86146102e4575082635ec3aa4b146102bc5782636880c5c8146102b1578263a60ff2b21461006457505063d4dc02421461005c575b600080fd5b61005761030d565b60a03660031901126102aa576004359173ffffffffffffffffffffffffffffffffffffffff908184168094036102ae57602435938285168095036102aa57604435908382168092036102a657606435936fffffffffffffffffffffffffffffffff9182861680960361025157608435938415948515036102555787519889927f1698ee82000000000000000000000000000000000000000000000000000000008452600484015260248301526109c4604483015281606460209a8b935afa90811561026157908291869161026b575b5060c09060048951809481937f3850c7bd000000000000000000000000000000000000000000000000000000008352165afa9081156102615785916101dc575b50169081116101ad57806101869161037f565b91501561019f579061019791610693565b905b51908152f35b6101a891610637565b610197565b806101b7916103a8565b9150156101ce57906101c89161059d565b90610199565b6101d791610437565b6101c8565b905060c0813d8211610259575b816101f660c09383610338565b8101031261025157805190828216820361025557888101518060020b0361025557806102258960a09301610370565b5061023260608201610370565b5061023f60808201610370565b50015160ff8116036102515788610173565b8480fd5b8580fd5b3d91506101e9565b87513d87823e3d90fd5b809250898092503d831161029f575b6102848183610338565b810103126102515751818116810361025157819060c0610133565b503d61027a565b8280fd5b5080fd5b80fd5b50505061005761030d565b816003193601126102aa576020905173bb4cdb9cbd36b01bd1cbaebf2de08d9173bc095c8152f35b9050816003193601126102aa578073ae13d989dac2f0debff460ac112a837c89baa7cd60209252f35b506000366003190112610057576020604051730bfbcf9fa4f9c56b0f40a671ad40e0805a0918658152f35b90601f8019910116810190811067ffffffffffffffff82111761035a57604052565b634e487b7160e01b600052604160045260246000fd5b519061ffff8216820361005757565b8181029291811591840414171561039257565b634e487b7160e01b600052601160045260246000fd5b6000198282098282029182808310920393828503926000951461042c57680100000000000000009183831115610255570990828211848183039561041857501460018480041417156103925767ffffffffffffffff19910304178060071b90808204608014901517156103925790565b80634e487b7160e01b602492526011600452fd5b505050905060401c90565b90919060001970010000000000000000000000000000000081838209908360801b9384808410930392808403931461058d578287111561005757869109851995600187019283881161039257600184806104a094049660009a8b0301040190868411900361037f565b9280600302966003880482036104185760028098186104bf818461037f565b89039089821161057957906104d39161037f565b6104dd818461037f565b89039089821161057957906104f19161037f565b6104fb818461037f565b890390898211610579579061050f9161037f565b610519818461037f565b890390898211610579579061052d9161037f565b610537818461037f565b890390898211610579576105559161054e9161037f565b809361037f565b88039788116104185750610576959661056d9161037f565b9303041761037f565b90565b602483634e487b7160e01b81526011600452fd5b5050505082919215610057570490565b6000198282098282029182808310920393828503926000951461062c57700100000000000000000000000000000000918383111561025557099082821184818303956104185750146001848004141715610392577fffffffffffffffffffffffffffffffff00000000000000000000000000000000910304178060071b90808204608014901517156103925790565b505050905060801c90565b909190600019600160c01b81838209908360c01b9384808410930392808403931461058d578287111561005757869109851995600187019283881161039257600184806104a094049660009a8b0301040190868411900361037f565b6000198282098282029182808310920393828503926000951461071557600160c01b918383111561025557099082821184818303956104185750146001848004141715610392577fffffffffffffffff000000000000000000000000000000000000000000000000910304178060071b90808204608014901517156103925790565b505050905060c01c9056fea2646970667358221220790541f7574c91eb858f52d9a06965e7ff2c3c0d756e3e4bf8ba33fd674b363064736f6c63430008110033",
     "devdoc": {
          "kind": "dev",
          "methods": {},
          "version": 1
     },
     "userdoc": {
          "kind": "user",
          "methods": {},
          "version": 1
     },
     "storageLayout": {
          "storage": [],
          "types": null
     }
}