{
     "address": "0x7440E8dE35215c7854ca32BCCf772fDF36f34556",
     "abi": [
          {
               "inputs": [
                    {
                         "internalType": "contract SmartWalletFactory",
                         "name": "_factory",
                         "type": "address"
                    }
               ],
               "stateMutability": "nonpayable",
               "type": "constructor"
          },
          {
               "anonymous": false,
               "inputs": [
                    {
                         "indexed": true,
                         "internalType": "address",
                         "name": "previousOwner",
                         "type": "address"
                    },
                    {
                         "indexed": true,
                         "internalType": "address",
                         "name": "newOwner",
                         "type": "address"
                    }
               ],
               "name": "OwnershipTransferred",
               "type": "event"
          },
          {
               "inputs": [
                    {
                         "internalType": "address",
                         "name": "_owner",
                         "type": "address"
                    }
               ],
               "name": "createWallet",
               "outputs": [
                    {
                         "internalType": "contract IWallet",
                         "name": "",
                         "type": "address"
                    }
               ],
               "stateMutability": "payable",
               "type": "function"
          },
          {
               "inputs": [],
               "name": "owner",
               "outputs": [
                    {
                         "internalType": "address",
                         "name": "",
                         "type": "address"
                    }
               ],
               "stateMutability": "view",
               "type": "function"
          },
          {
               "inputs": [],
               "name": "renounceOwnership",
               "outputs": [],
               "stateMutability": "nonpayable",
               "type": "function"
          },
          {
               "inputs": [
                    {
                         "internalType": "address",
                         "name": "newOwner",
                         "type": "address"
                    }
               ],
               "name": "transferOwnership",
               "outputs": [],
               "stateMutability": "nonpayable",
               "type": "function"
          },
          {
               "inputs": [
                    {
                         "internalType": "address",
                         "name": "_owner",
                         "type": "address"
                    },
                    {
                         "internalType": "uint256",
                         "name": "_nonce",
                         "type": "uint256"
                    }
               ],
               "name": "walletAddress",
               "outputs": [
                    {
                         "internalType": "address",
                         "name": "",
                         "type": "address"
                    }
               ],
               "stateMutability": "view",
               "type": "function"
          }
     ],
     "transactionHash": "0x042f46b650555fb1a28b6ab56e53ebab8549a620d507208ddbe88b36892cdf76",
     "args": [
          "0x9b1Fb94a01bA13323b56F1fC8c87ff4378993642"
     ],
     "numDeployments": 13,
     "solcInputHash": "2837d4ad5165d58f773d93d540e47d75",
     "bytecode": "0x60803461016657601f613c3238819003918201601f19168301926001600160401b039290918385118386101761016b57816020928492604097885283398101031261016657516001600160a01b0380821692909183900361016657600080546001600160a01b0319808216339081178455875191959394939283167f8be0079c531659141344cd1fd0a4f28419497f9722a3daafe3b4186f6b6457e08680a36135d380820190828210858311176101525790829161065f8339039084f08015610148571680846002541617600255803b1561014457908280926024885180968193636fc0109960e11b83528160048401525af1801561013a57610115575b5050506001541617600155516104dd90816101828239f35b8211610126575083523880806100fd565b634e487b7160e01b81526041600452602490fd5b86513d84823e3d90fd5b8280fd5b86513d85823e3d90fd5b634e487b7160e01b86526041600452602486fd5b600080fd5b634e487b7160e01b600052604160045260246000fdfe60806040818152600436101561001457600080fd5b600091823560e01c9081631238ac7c146102c857508063715018a6146102625780638da5cb5b1461023d578063b054a9e8146101405763f2fde38b1461005957600080fd5b3461013c57602036600319011261013c57610072610387565b61007a6103a2565b6001600160a01b038091169182156100d3575082548273ffffffffffffffffffffffffffffffffffffffff198216178455167f8be0079c531659141344cd1fd0a4f28419497f9722a3daafe3b4186f6b6457e08380a380f35b6084905162461bcd60e51b815260206004820152602660248201527f4f776e61626c653a206e6577206f776e657220697320746865207a65726f206160448201527f64647265737300000000000000000000000000000000000000000000000000006064820152fd5b5080fd5b50906020918260031936011261013c57906101d59161015d610387565b91846001600160a01b03938460015416856002541686865193636fc0109960e11b8686015216602484015260248352610195836103fa565b85518098819482937feebc8e1900000000000000000000000000000000000000000000000000000000845260048401528860248401526044830190610467565b039134905af19384156102315781946101f2575b50505191168152f35b909193508481813d831161022a575b61020b8183610445565b8101031261013c575190828216820361022757509138806101e9565b80fd5b503d610201565b509051903d90823e3d90fd5b503461013c578160031936011261013c576001600160a01b0360209254169051908152f35b823461022757806003193601126102275761027b6103a2565b806001600160a01b03815473ffffffffffffffffffffffffffffffffffffffff1981168355167f8be0079c531659141344cd1fd0a4f28419497f9722a3daafe3b4186f6b6457e08280a380f35b905034610383578160031936011261038357610361916102e6610387565b936001600160a01b03948593846001541685600254166020988994636fc0109960e11b8686015216602484015260248352610320836103fa565b85518098819482937fd1e64ad70000000000000000000000000000000000000000000000000000000084526004840152606060248401526064830190610467565b602435604483015203915afa9384156102315781946101f25750505191168152f35b8280fd5b600435906001600160a01b038216820361039d57565b600080fd5b6001600160a01b036000541633036103b657565b606460405162461bcd60e51b815260206004820152602060248201527f4f776e61626c653a2063616c6c6572206973206e6f7420746865206f776e65726044820152fd5b6060810190811067ffffffffffffffff82111761041657604052565b7f4e487b7100000000000000000000000000000000000000000000000000000000600052604160045260246000fd5b90601f8019910116810190811067ffffffffffffffff82111761041657604052565b919082519283825260005b848110610493575050826000602080949584010152601f8019910116010190565b60208183018101518483018201520161047256fea2646970667358221220a249d310b4af4c98a8fad6b91a2ab359e0e7ca6a1f93d1cb1ac2cd98bd4eb22864736f6c6343000811003360a08060405234610031573060805261359c908161003782396080518181816101ff015281816106d201526108500152f35b600080fdfe60806040526004361015610023575b361561001957600080fd5b610021611600565b005b60003560e01c8063252f5a171461014f5780632c2cf9a4146101465780633659cfe61461013d57806336c78516146101345780634f1ef2861461012b57806352d1902d146101225780636969e60c1461011957806387517c45146101105780638901e25b146101075780638da5cb5b146100fe578063927da105146100f5578063affed0e0146100ec578063dea979da146100e3578063df802132146100da5763f019ea2b0361000e576100d5610ede565b61000e565b506100d5610e20565b506100d5610d94565b506100d5610d53565b506100d5610cb2565b506100d5610c6b565b506100d5610b84565b506100d5610a2c565b506100d561093c565b506100d5610834565b506100d561068c565b506100d5610386565b506100d56101d5565b506100d561017b565b503461017657602036600319011261017657602061016e6004356114e2565b604051908152f35b600080fd5b50346101765760003660031901126101765760206040517f1abfd930c022142841a784ac6f15bfb82392b3b97047cb73f2b3e8a6a2419f5f8152f35b6001600160a01b0381160361017657565b35906101d3826101b7565b565b5034610176576020366003190112610176576004356101f3816101b7565b6001600160a01b0390817f0000000000000000000000000000000000000000000000000000000000000000169161022c83301415610f1a565b61025b7f360894a13ba1a3210667c828492db98dca3e2076cc3735a920a3ca505d382bbc938285541614610f8b565b303303610176576040519061026f826105b2565b600082527f4910fdfa16fed3260ed0e7147f7cc6da11a60208b5b9406d12a635614ffd91435460ff16156102a95750506100219150611089565b6020600491604094939451928380926352d1902d60e01b825286165afa60009181610356575b506103435760405162461bcd60e51b815260206004820152602e60248201527f45524331393637557067726164653a206e657720696d706c656d656e7461746960448201527f6f6e206973206e6f7420555550530000000000000000000000000000000000006064820152608490fd5b0390fd5b610021936103519114611018565b611136565b61037891925060203d811161037f575b61037081836105ea565b810190610ffc565b90386102cf565b503d610366565b5034610176576080366003190112610176576004356103a4816101b7565b602435906103b1826101b7565b604435916103be836101b7565b606435916103cb836101b7565b61041f610407846103ef846001600160a01b03166000526066602052604060002090565b906001600160a01b0316600052602052604060002090565b336001600160a01b0316600052602052604060002090565b80549065ffffffffffff8260a01c1642116104fd576001600160a01b0380921690828203610457575b505080610021951693166134bd565b909586838216116000146104d05760405162461bcd60e51b815260206004820152602a60248201527f6661696c656420746f207472616e736665722c20696e73756666696369656e7460448201527f20616c6c6f77616e6365000000000000000000000000000000000000000000006064820152608490fd5b6104f7839283836100219a03166001600160a01b03166001600160a01b0319825416179055565b95610448565b60405162461bcd60e51b815260206004820152601e60248201527f7472616e7366657220616c6c6f77616e636520686173206578706972656400006044820152606490fd5b50634e487b7160e01b600052604160045260246000fd5b6060810190811067ffffffffffffffff82111761057557604052565b61057d610542565b604052565b6080810190811067ffffffffffffffff82111761057557604052565b67ffffffffffffffff811161057557604052565b6020810190811067ffffffffffffffff82111761057557604052565b6040810190811067ffffffffffffffff82111761057557604052565b90601f8019910116810190811067ffffffffffffffff82111761057557604052565b60209067ffffffffffffffff811161062a575b601f01601f19160190565b610632610542565b61061f565b9291926106438261060c565b9161065160405193846105ea565b829481845281830111610176578281602093846000960137010152565b9080601f830112156101765781602061068993359101610637565b90565b506040366003190112610176576004356106a5816101b7565b60243567ffffffffffffffff8111610176576106c590369060040161066e565b906001600160a01b0391827f000000000000000000000000000000000000000000000000000000000000000016926106ff84301415610f1a565b61072e7f360894a13ba1a3210667c828492db98dca3e2076cc3735a920a3ca505d382bbc948286541614610f8b565b303303610176577f4910fdfa16fed3260ed0e7147f7cc6da11a60208b5b9406d12a635614ffd91435460ff161561076b5750506100219150611089565b6020600491604094939451928380926352d1902d60e01b825286165afa60009181610814575b506108015760405162461bcd60e51b815260206004820152602e60248201527f45524331393637557067726164653a206e657720696d706c656d656e7461746960448201527f6f6e206973206e6f7420555550530000000000000000000000000000000000006064820152608490fd5b6100219361080f9114611018565b611208565b61082d91925060203d811161037f5761037081836105ea565b9038610791565b5034610176576000366003190112610176576001600160a01b037f00000000000000000000000000000000000000000000000000000000000000001630036108a1576040517f360894a13ba1a3210667c828492db98dca3e2076cc3735a920a3ca505d382bbc8152602090f35b608460405162461bcd60e51b815260206004820152603860248201527f555550535570677261646561626c653a206d757374206e6f742062652063616c60448201527f6c6564207468726f7567682064656c656761746563616c6c00000000000000006064820152fd5b9181601f840112156101765782359167ffffffffffffffff8311610176576020808501948460051b01011161017657565b5034610176576020806003193601126101765760043567ffffffffffffffff81116101765761096f90369060040161090b565b60009291925b63ffffffff81169082821015610021576109fa856109ff936109a6478861099d848a876117e8565b01351115611818565b6001600160a01b036109f36109ec6109e28a6109d8868c6109c882828c6117e8565b35996109d38b6101b7565b6117e8565b0135948a8d6117e8565b6040810190611893565b3691610637565b9216612c03565b6117af565b610975565b6064359065ffffffffffff8216820361017657565b359065ffffffffffff8216820361017657565b503461017657608036600319011261017657600435610a4a816101b7565b602435610a56816101b7565b604435610a62816101b7565b610a6a610a04565b916001600160a01b03807f3c344650e40c6608a176dc19a4b7c111d92b7e4d03081787ac55837ca120d11b54163303610b1a5781610aee8585610ae97fda9fa7c1b00402c17d0161b249b1ab8bbec047c5a52207b9c112deffd817036b966103ef8b6103ef336001600160a01b03166000526066602052604060002090565b612cd6565b604080516001600160a01b0395909516855265ffffffffffff95909516602085015281169416923392a4005b608460405162461bcd60e51b815260206004820152602660248201527f6f6e6c792077616c6c6574206f776e65722063616e206772616e7420616c6c6f60448201527f77616e63657300000000000000000000000000000000000000000000000000006064820152fd5b503461017657600080600319360112610c68578054610bba60ff8260081c161580928193610c5a575b8115610c3a575b5061136b565b80610bcd600160ff196000541617600055565b610c21575b610bda61162e565b610be15780f35b610bf161ff001960005416600055565b604051600181527f7f26b83ff96e1f2b6a682f133852f6798a09c465da95921460cefb384740249890602090a180f35b610c3561010061ff00196000541617600055565b610bd2565b303b15915081610c4c575b5038610bb4565b6001915060ff161438610c45565b600160ff8216109150610bad565b80fd5b50346101765760003660031901126101765760206001600160a01b037f3c344650e40c6608a176dc19a4b7c111d92b7e4d03081787ac55837ca120d11b5416604051908152f35b503461017657606036600319011261017657600435610cd0816101b7565b610d1f602435610cdf816101b7565b6103ef60443591610cef836101b7565b6001600160a01b0380951660005260666020526040600020906001600160a01b0316600052602052604060002090565b54604080519282166001600160a01b0316835265ffffffffffff60a083901c16602084015260d09190911c90820152606090f35b50346101765760003660031901126101765760207f3c344650e40c6608a176dc19a4b7c111d92b7e4d03081787ac55837ca120d11b5460a01c604051908152f35b5034610176576003196060368201126101765767ffffffffffffffff60043581811161017657610dc890369060040161090b565b92906024359183831161017657606090833603011261017657604435938385116101765736602386011215610176578460040135938411610176573660248587010111610176576024610021950192600401916118c6565b503461017657602036600319011261017657600435610e3e816101b7565b610e8060005491610e6460ff8460081c161580948195610c5a578115610c3a575061136b565b82610e77600160ff196000541617600055565b610ec5576113dc565b610e8657005b610e9661ff001960005416600055565b604051600181527f7f26b83ff96e1f2b6a682f133852f6798a09c465da95921460cefb384740249890602090a1005b610ed961010061ff00196000541617600055565b6113dc565b50346101765760003660031901126101765760206040517fe06ddd2657f493bbdb0819686ad5459ec926ea69f0752f8e57e3a53158905fce8152f35b15610f2157565b608460405162461bcd60e51b815260206004820152602c60248201527f46756e6374696f6e206d7573742062652063616c6c6564207468726f7567682060448201527f64656c656761746563616c6c00000000000000000000000000000000000000006064820152fd5b15610f9257565b608460405162461bcd60e51b815260206004820152602c60248201527f46756e6374696f6e206d7573742062652063616c6c6564207468726f7567682060448201527f6163746976652070726f787900000000000000000000000000000000000000006064820152fd5b90816020910312610176575190565b506040513d6000823e3d90fd5b1561101f57565b608460405162461bcd60e51b815260206004820152602960248201527f45524331393637557067726164653a20756e737570706f727465642070726f7860448201527f6961626c655555494400000000000000000000000000000000000000000000006064820152fd5b803b156110cc576001600160a01b037f360894a13ba1a3210667c828492db98dca3e2076cc3735a920a3ca505d382bbc91166001600160a01b0319825416179055565b608460405162461bcd60e51b815260206004820152602d60248201527f455243313936373a206e657720696d706c656d656e746174696f6e206973206e60448201527f6f74206120636f6e7472616374000000000000000000000000000000000000006064820152fd5b9061114082611089565b6001600160a01b0382167fbc7cd75a20ee27fd9adebab32041f755214dbc6bffa90cc0225b39da2e5c2d3b600080a2805115801590611200575b611182575050565b6111fd916000806040519361119685610559565b602785527f416464726573733a206c6f772d6c6576656c2064656c65676174652063616c6c60208601527f206661696c6564000000000000000000000000000000000000000000000000006040860152602081519101845af46111f761125b565b9161128b565b50565b50600061117a565b9061121282611089565b6001600160a01b0382167fbc7cd75a20ee27fd9adebab32041f755214dbc6bffa90cc0225b39da2e5c2d3b600080a280511580159061125357611182575050565b50600161117a565b3d15611286573d9061126c8261060c565b9161127a60405193846105ea565b82523d6000602084013e565b606090565b919290156112ec575081511561129f575090565b3b156112a85790565b606460405162461bcd60e51b815260206004820152601d60248201527f416464726573733a2063616c6c20746f206e6f6e2d636f6e74726163740000006044820152fd5b8251909150156112ff5750805190602001fd5b61033f9060405191829162461bcd60e51b8352602060048401526024830190611346565b60005b8381106113365750506000910152565b8181015183820152602001611326565b9060209161135f81518092818552858086019101611323565b601f01601f1916010190565b1561137257565b608460405162461bcd60e51b815260206004820152602e60248201527f496e697469616c697a61626c653a20636f6e747261637420697320616c72656160448201527f647920696e697469616c697a65640000000000000000000000000000000000006064820152fd5b6113fb60ff60005460081c166113f181611471565b4761144357611471565b6001600160a01b0319906001600160a01b037f3c344650e40c6608a176dc19a4b7c111d92b7e4d03081787ac55837ca120d11b91168282541617905533906065541617606555565b476040519081527f3317af6e3247959c45cb6051f9153437a9072683e21eda1f9b52c5bcec0e89c260203392a25b1561147857565b608460405162461bcd60e51b815260206004820152602b60248201527f496e697469616c697a61626c653a20636f6e7472616374206973206e6f74206960448201527f6e697469616c697a696e670000000000000000000000000000000000000000006064820152fd5b7f454344534157616c6c65740000000000000000000000000000000000000000006020604051611511816105ce565b600b815201527f302e302e310000000000000000000000000000000000000000000000000000006020604051611546816105ce565b60058152015260405160208101917f8b73c3c69bb8fe3d512ecc4cf759cc79239f7b179b0ffacaa9a75d522b39400f83527fa493ff226186ed9712809d71f428d7f274876a4f2b9236f1762ec84b059ae32b60408301527fae209a0b48f21c054280f2455d32cf309387644879d9acbd8ffc199163811885606083015260808201523060a082015260a0815260c0810181811067ffffffffffffffff8211176115f3575b60405251902090565b6115fb610542565b6115ea565b6040513481527f3317af6e3247959c45cb6051f9153437a9072683e21eda1f9b52c5bcec0e89c260203392a2565b61163f60ff60005460081c16611471565b4761164657565b476040519081527f3317af6e3247959c45cb6051f9153437a9072683e21eda1f9b52c5bcec0e89c260203392a2565b60209067ffffffffffffffff811161168f575b60051b0190565b611697610542565b611688565b9160609283818403126101765760408051916116b783610559565b8294813567ffffffffffffffff811161017657820181601f82011215610176578035906116e382611675565b916116f0865193846105ea565b808352602093848085019260071b84010192818411610176578501915b8383106117365750505050848495969798505261172b8183016101c8565b908501520135910152565b60808383031261017657856080918d8a519061175182610582565b863561175c816101b7565b82528387013561176b816101b7565b8483015261177a8c8801610a19565b8c830152611789818801610a19565b9082015281520192019161170d565b50634e487b7160e01b600052601160045260246000fd5b60019063ffffffff8091169081146117c5570190565b6117cd611798565b0190565b50634e487b7160e01b600052603260045260246000fd5b919081101561180b575b60051b81013590605e1981360301821215610176570190565b6118136117d1565b6117f2565b1561181f57565b608460405162461bcd60e51b815260206004820152602c60248201527f536d61727457616c6c65743a20696e73756666696369656e742062617365206160448201527f737365742062616c616e636500000000000000000000000000000000000000006064820152fd5b35610689816101b7565b903590601e1981360301821215610176570180359067ffffffffffffffff82116101765760200191813603831361017657565b92949391905a946118d682611675565b6040946118e5865192836105ea565b8382526020988983018560051b8901903682116101765789905b8282106119d0575050509061192461192a939261191c368961169c565b923691610637565b91612172565b611932611a3b565b60005b63ffffffff8116838110156119b357906109fa89886119a86109ec61199f876119688b8761099d6119ae9c47938a6117e8565b8a61198b61197f61197a84848a6117e8565b611889565b6001600160a01b031690565b966119978383896117e8565b0135956117e8565b8b810190611893565b91612c03565b611935565b50509550506101d39392506119ca9150369061169c565b90611cf0565b67ffffffffffffffff908235828111610176578c0190606082360312610176578b518f6119fc82610559565b8335611a07816101b7565b825280840135908201528c830135938411610176578f938493611a2c9136910161066e565b8d8201528152019101906118ff565b7f3c344650e40c6608a176dc19a4b7c111d92b7e4d03081787ac55837ca120d11b80546001600160a01b036001600160a01b031960018360a01c6bffffffffffffffffffffffff8114611a95575b0160a01b169116179055565b611a9d611798565b611a89565b604090805160011015611ab3570190565b6117cd6117d1565b6020918151811015611ad0575b60051b010190565b611ad86117d1565b611ac8565b5190811515820361017657565b908160209103126101765761068990611add565b15611b0557565b606460405162461bcd60e51b815260206004820152601560248201527f756e7375707075727465642046656520417373657400000000000000000000006044820152fd5b906188b8918201809211611b5957565b6101d3611798565b9060018201809211611b5957565b91908201809211611b5957565b91908203918211611b5957565b90600582029180830460051490151715611b5957565b90633b9aca0091828102928184041490151715611b5957565b906103e591828102928184041490151715611b5957565b906103e891828102928184041490151715611b5957565b81810292918115918404141715611b5957565b908160209103126101765751610689816101b7565b15611c1557565b608460405162461bcd60e51b815260206004820152602160248201527f496e75736566666963656e742062616c616e6365206f6620666565206173736560448201527f74000000000000000000000000000000000000000000000000000000000000006064820152fd5b60405190611c8c82610559565b602d82527f743136302c6164647265737329000000000000000000000000000000000000006040837f7472616e7366657246726f6d28616464726573732c616464726573732c75696e60208201520152565b60ff6001911660ff81146117c5570190565b9190918251611cfe90611aa2565b51516001600160a01b031691606554611d1d906001600160a01b031690565b604080517f3315389a0000000000000000000000000000000000000000000000000000000081526001600160a01b038681166004830152602095931690858082602481865afa928315611dab611da6611d9f611fae99611d9a611fa899611e889961197f99611db098612165575b600092612138575b5050611afe565b611b49565b5a90611b7c565b611b89565b611b9f565b908551907f4aa4a4fc0000000000000000000000000000000000000000000000000000000082528a8a83600481855afa92831561212b575b60009361210b575b50600492938b8951937f6906090b00000000000000000000000000000000000000000000000000000000855281858781845afa9485156120fe575b6000956120df575b508a51958680927f7600f3f20000000000000000000000000000000000000000000000000000000082525afa9384156120d2575b600094612091575b506fffffffffffffffffffffffffffffffff1693612d3d565b91611f9a7f3c344650e40c6608a176dc19a4b7c111d92b7e4d03081787ac55837ca120d11b97611ebf89546001600160a01b031690565b83517f70a082310000000000000000000000000000000000000000000000000000000081526001600160a01b038281166004830152919691611f2091908b826024818885165afa918215612084575b600092612065575b5083161115611c0e565b611f28611c7f565b93611f63611f5d8251968c81519101207fffffffff000000000000000000000000000000000000000000000000000000001690565b9561059e565b51898101949094526001600160a01b03958616602485015233604485015285166064840152909316608482015291829060a4820190565b03601f1981018352826105ea565b30612b91565b83519060005b85515160ff82169081101561205c57906120526120426120306120579461201961200b612004611feb8d546001600160a01b031690565b6001600160a01b03166000526066602052604060002090565b928a611abb565b51516001600160a01b031690565b6001600160a01b0316600052602052604060002090565b898801516001600160a01b0316612019565b6001600160a01b03198154169055565b611cde565b611fb4565b50509350505050565b61207d9192508c8d3d1061037f5761037081836105ea565b9038611f16565b61208c61100b565b611f0e565b6fffffffffffffffffffffffffffffffff9194506120c4908d803d106120cb575b6120bc81836105ea565b810190611bf9565b9390611e6f565b503d6120b2565b6120da61100b565b611e67565b6120f7919550823d84116120cb576120bc81836105ea565b9338611e33565b61210661100b565b611e2b565b60049350612125908c8d3d106120cb576120bc81836105ea565b92611df0565b61213361100b565b611de8565b6121579250803d1061215e575b61214f81836105ea565b810190611aea565b388f611d93565b503d612145565b61216d61100b565b611d8b565b825183018360208201916040918291031261017657602085015194818101519067ffffffffffffffff8211610176570182603f820112156101765760208101516121bb8161060c565b936121c8845195866105ea565b818552838284010111610176576101d3966122d9956121f96122d1936001600160a01b03958760208a019101611323565b612202826114e2565b916122956122186122128b612427565b9361234d565b7f3c344650e40c6608a176dc19a4b7c111d92b7e4d03081787ac55837ca120d11b5497517f54dfcece5d45509c63544d27d1da5b258bc2a35511159bdd86e18281e6d62699602082019081526040820195909552606081019190915260a088811c6080830152469082015260c08101929092528160e08101611f9a565b51902090604291604051917f19010000000000000000000000000000000000000000000000000000000000008352600283015260228201522090565b911691612621565b61298b565b906122e882611675565b6122f560405191826105ea565b8281528092612306601f1991611675565b0190602036910137565b60019060001981146117c5570190565b805160208092019160005b828110612339575050505090565b83518552938101939281019260010161232b565b9061235882516122de565b60005b8351811015612408578061237561200b6124039387611abb565b60206123f081612385858a611abb565b51015191611f9a604080612399888d611abb565b5101518381519101209051948593840196876060919493926001600160a01b0360808301967f8de9c86fbdd52e2efe5d4e29fd947a8389e0d8945fed5eef2d0dff9745e601c7845216602083015260408201520152565b5190206123fd8285611abb565b52612310565b61235b565b5090915060405161242181611f9a602082018095612320565b51902090565b80515190612434826122de565b9160005b8181106124e95750506124216040519283612457602082018093612320565b039361246b601f19958681018352826105ea565b51902092604061248560208501516001600160a01b031690565b930151926124dd6040519485926020840197886001600160a01b0360609295949360808301967fe06ddd2657f493bbdb0819686ad5459ec926ea69f0752f8e57e3a53158905fce845260208401521660408201520152565b039081018352826105ea565b806125016124fb61250b938651611abb565b51612510565b6123fd8287611abb565b612438565b60405160208101917f1abfd930c022142841a784ac6f15bfb82392b3b97047cb73f2b3e8a6a2419f5f83526001600160a01b038082511660408401526020820151166060830152606065ffffffffffff9182604082015116608085015201511660a082015260a0815260c0810181811067ffffffffffffffff8211176115f35760405251902090565b9081602091031261017657517fffffffff00000000000000000000000000000000000000000000000000000000811681036101765790565b604090610689939281528160208201520190611346565b9190826040910312610176576020825192015190565b60ff601b9116019060ff8211611b5957565b606090805160401015611ab3570190565b906000833b61281557508151604181036127775750816000916126b561266161268d61268761265960208099518801018988016125e8565b939096612610565b517fff000000000000000000000000000000000000000000000000000000000000001690565b60f81c90565b935b604051948594859094939260ff6060936080840197845216602083015260408201520152565b838052039060015afa1561276a575b6001600160a01b0380600051169182156127255716036126e057565b60405162461bcd60e51b815260206004820181905260248201527f5369676e6572206973206e6f7420536d6172742057616c6c6574204f776e65726044820152606490fd5b60405162461bcd60e51b815260206004820152601160248201527f496e76616c6964205369676e61747572650000000000000000000000000000006044820152606490fd5b61277261100b565b6126c4565b6040036127d0576126b56000916127988460208080975183010191016125e8565b9290926127ca7f7fffffffffffffffffffffffffffffffffffffffffffffffffffffffffffffff82169160ff1c6125fe565b9361268f565b60405162461bcd60e51b815260206004820152601b60248201527f5369676e6174757265206c656e67746820697320496e76616c696400000000006044820152606490fd5b9092602061287e6001600160a01b03927fffffffff00000000000000000000000000000000000000000000000000000000956040519485809481937f1626ba7e000000000000000000000000000000000000000000000000000000009b8c8452600484016125d1565b0392165afa918215612933575b91612905575b50160361289a57565b60405162461bcd60e51b815260206004820152602560248201527f5369676e6572206973206e6f7420612076616c696420636f6e7472616374207360448201527f69676e65720000000000000000000000000000000000000000000000000000006064820152608490fd5b612926915060203d811161292c575b61291e81836105ea565b810190612599565b38612891565b503d612914565b61293b61100b565b61288b565b1561294757565b606460405162461bcd60e51b815260206004820152601c60248201527f7065726d6974207369676e6174757265206861732065787069726564000000006044820152fd5b6020808201906129a282516001600160a01b031690565b928051519260005b8481106129b957505050505050565b6129cd61197f83516001600160a01b031690565b6129da575b6001016129aa565b60406129ea818501514210612940565b612a0860606129fa848751611abb565b51015165ffffffffffff1690565b612a1661200b848751611abb565b91612a3587612a26868951611abb565b5101516001600160a01b031690565b91612a45826129fa878a51611abb565b907f3c344650e40c6608a176dc19a4b7c111d92b7e4d03081787ac55837ca120d11b612a838c6103ef886103ef611feb86546001600160a01b031690565b805460d01c65ffffffffffff808516911603612b2757612b1d83612ae78f938795612ada7fc6a377bfc4eb120024a8ac08eef205be16b817020812c73223e81d1bdb9708ec988c9b9a60019f9e9d61197f95612c6b565b546001600160a01b031690565b95516001600160a01b03978816815265ffffffffffff948516602082015293166040840152908516959094169381906060820190565b0390a490506129d2565b845162461bcd60e51b815260206004820152602160248201527f6e6f6e766520666f7220616c6c6f77616e6365206f7020697320696e76616c6960448201527f64000000000000000000000000000000000000000000000000000000000000006064820152608490fd5b6001600160a01b031660008083516020850182855af1907f202ca0633e9bf52b1d9ffc5784badd7db89fdd8a05bea524c99853429017f7ae612bf0612bd461125b565b9460405191829160008352604060208401526040830190611346565b0390a215612bfb5750565b602081519101fd5b6001600160a01b0390929192167f202ca0633e9bf52b1d9ffc5784badd7db89fdd8a05bea524c99853429017f7ae60008084516020860187865af192612c4761125b565b94612bf06040519283928352604060208401526040830190611346565b1561017657565b929091600165ffffffffffff60a01b6001600160a01b037fffffffffffff00000000000000000000000000000000000000000000000000009365ffffffffffff9081811615600014612cce57504216955b169460a01b16920160d01b1617179055565b905095612cbc565b6101d39265ffffffffffff90818116612d36575042165b81547fffffffffffff00000000000000000000000000000000000000000000000000001660a09190911b65ffffffffffff60a01b16176001600160a01b03909216919091179055565b9050612ced565b9192612d5191959493600096600094612f7f565b91906002811015612f6b5760018103612d7157505061068992935061326a565b91909115612d7e57505050565b610689939450906001600160a01b03612ebc93921690604051927f0902f1ac000000000000000000000000000000000000000000000000000000008452606084600481865afa8015612f5e575b829383958492612f14575b5091612eb694939160046020612eaf95604051928380927f5909c0d50000000000000000000000000000000000000000000000000000000082525afa938415612f07575b93612ec1575b50612eaa91612ea3612e4963ffffffff6fffffffffffffffffffffffffffffffff941642611b7c565b94612e9d612e568b6131c6565b96612e97612e766dffffffffffffffffffffffffffff809c16809a613221565b7bffffffffffffffffffffffffffffffffffffffffffffffffffffffff1690565b90611be6565b90611b6f565b5016611bb8565b611be6565b9216611bcf565b906131b0565b611b61565b6fffffffffffffffffffffffffffffffff91935091612ea3612e4963ffffffff612efb612eaa9660203d811161037f5761037081836105ea565b96945050505091612e20565b612f0f61100b565b612e1a565b60049650612eb69550602094925090612f47612eaf949260603d8111612f57575b612f3f81836105ea565b81019061316c565b9098509096509294509092612dd6565b503d612f35565b612f6661100b565b612dcb565b602482634e487b7160e01b81526021600452fd5b6040517f1698ee820000000000000000000000000000000000000000000000000000000081526001600160a01b038083166004830152831660248201526109c4604482015294936020939092918487806064810103816001600160a01b038098165afa968715613133575b60009761310a575b506040517fe6a439050000000000000000000000000000000000000000000000000000000081526001600160a01b0391821660048201529216602483015283908290818581604481015b0392165afa9283156130fd575b6000936130de575b50508381161561306357505060019190565b9092508216156130735760009190565b60405162461bcd60e51b815260206004820152603060248201527f4e6f207061697220666f756e642c20556e61626c6520746f20657374696d617460448201527f65206665657320666f72207472616465000000000000000000000000000000006064820152608490fd5b6130f5929350803d106120cb576120bc81836105ea565b903880613051565b61310561100b565b613049565b61303c93919750916131298693843d86116120cb576120bc81836105ea565b9791935091612ff2565b61313b61100b565b612fea565b51906dffffffffffffffffffffffffffff8216820361017657565b519063ffffffff8216820361017657565b908160609103126101765761318081613140565b91610689604061319260208501613140565b930161315b565b50634e487b7160e01b600052601260045260246000fd5b81156131ba570490565b6131c2613199565b0490565b7bffffffffffffffffffffffffffff00000000000000000000000000006dffffffffffffffffffffffffffff82169160701b16908082046e01000000000000000000000000000014901517156132195790565b610689611798565b907bffffffffffffffffffffffffffffffffffffffffffffffffffffffff80911691821561324e57160490565b613256613199565b160490565b519061ffff8216820361017657565b6040517f3850c7bd00000000000000000000000000000000000000000000000000000000815260e0816004816001600160a01b038096165afa908115613384575b6000916132f6575b5016906fffffffffffffffffffffffffffffffff8083116132e2576132db8361068994611be6565b9116613477565b6132ef8361068994613391565b91166133db565b60e0813d821161337c575b8161330e60e093836105ea565b8101031261337857805191613322836101b7565b60208201518060020b03610c68575060c0816133436040613371940161325b565b506133506060820161325b565b5061335d6080820161325b565b5061336a60a0820161315b565b5001611add565b50386132b3565b5080fd5b3d9150613301565b61338c61100b565b6132ab565b60001982820990828102928380841093039280840393146133d257680100000000000000009183831115610176570990828211900360c01b910360401c1790565b50505060401c90565b9070010000000000000000000000000000000090600019838309928060801b9283808610950394808603951461346857908291613419868411612c64565b0981806000031680920460028082600302188083028203028083028203028083028203028083028203028083028203028092029003029360018380600003040190848311900302920304170290565b505091506131c2821515612c64565b90780100000000000000000000000000000000000000000000000090600019838309928060c01b9283808610950394808603951461346857908291613419868411612c64565b9160008093602095606494604051947f23b872dd0000000000000000000000000000000000000000000000000000000086526001600160a01b03809216600487015216602485015260448401525af13d15601f3d116001600051141617161561352257565b606460405162461bcd60e51b815260206004820152601460248201527f5452414e534645525f46524f4d5f4641494c45440000000000000000000000006044820152fdfea26469706673582212205374c484167b7e5bf3b117b8023bcb6176d3e2af3c1fda47e0e6d75d395bec6e64736f6c63430008110033",
     "devdoc": {
          "kind": "dev",
          "methods": {
               "owner()": {
                    "details": "Returns the address of the current owner."
               },
               "renounceOwnership()": {
                    "details": "Leaves the contract without owner. It will not be possible to call `onlyOwner` functions. Can only be called by the current owner. NOTE: Renouncing ownership will leave the contract without an owner, thereby disabling any functionality that is only available to the owner."
               },
               "transferOwnership(address)": {
                    "details": "Transfers ownership of the contract to a new account (`newOwner`). Can only be called by the current owner."
               }
          },
          "version": 1
     },
     "userdoc": {
          "kind": "user",
          "methods": {},
          "version": 1
     },
     "storageLayout": {
          "storage": [
               {
                    "astId": 2685,
                    "contract": "contracts/ECDSAWalletFactory.sol:ECDSAWalletFactory",
                    "label": "_owner",
                    "offset": 0,
                    "slot": "0",
                    "type": "t_address"
               },
               {
                    "astId": 4688,
                    "contract": "contracts/ECDSAWalletFactory.sol:ECDSAWalletFactory",
                    "label": "factory",
                    "offset": 0,
                    "slot": "1",
                    "type": "t_contract(SmartWalletFactory)5289"
               },
               {
                    "astId": 4691,
                    "contract": "contracts/ECDSAWalletFactory.sol:ECDSAWalletFactory",
                    "label": "wallet",
                    "offset": 0,
                    "slot": "2",
                    "type": "t_contract(ECDSAWallet)4677"
               }
          ],
          "types": {
               "t_address": {
                    "encoding": "inplace",
                    "label": "address",
                    "numberOfBytes": "20"
               },
               "t_contract(ECDSAWallet)4677": {
                    "encoding": "inplace",
                    "label": "contract ECDSAWallet",
                    "numberOfBytes": "20"
               },
               "t_contract(SmartWalletFactory)5289": {
                    "encoding": "inplace",
                    "label": "contract SmartWalletFactory",
                    "numberOfBytes": "20"
               }
          }
     }
}