{
     "address": "0x767faa2326168b2a7f3431ece5e2fec26f32f3fe",
     "abi": [
          {
               "inputs": [
                    {
                         "internalType": "uint256",
                         "name": "deadline",
                         "type": "uint256"
                    }
               ],
               "name": "AllowanceExpired",
               "type": "error"
          },
          {
               "inputs": [],
               "name": "ExcessiveInvalidation",
               "type": "error"
          },
          {
               "inputs": [
                    {
                         "internalType": "uint256",
                         "name": "amount",
                         "type": "uint256"
                    }
               ],
               "name": "InsufficientAllowance",
               "type": "error"
          },
          {
               "inputs": [
                    {
                         "internalType": "uint256",
                         "name": "maxAmount",
                         "type": "uint256"
                    }
               ],
               "name": "InvalidAmount",
               "type": "error"
          },
          {
               "inputs": [],
               "name": "InvalidContractSignature",
               "type": "error"
          },
          {
               "inputs": [],
               "name": "InvalidNonce",
               "type": "error"
          },
          {
               "inputs": [],
               "name": "InvalidSignature",
               "type": "error"
          },
          {
               "inputs": [],
               "name": "InvalidSignatureLength",
               "type": "error"
          },
          {
               "inputs": [],
               "name": "InvalidSigner",
               "type": "error"
          },
          {
               "inputs": [],
               "name": "LengthMismatch",
               "type": "error"
          },
          {
               "inputs": [
                    {
                         "internalType": "uint256",
                         "name": "signatureDeadline",
                         "type": "uint256"
                    }
               ],
               "name": "SignatureExpired",
               "type": "error"
          },
          {
               "anonymous": false,
               "inputs": [
                    {
                         "indexed": true,
                         "internalType": "address",
                         "name": "owner",
                         "type": "address"
                    },
                    {
                         "indexed": true,
                         "internalType": "address",
                         "name": "token",
                         "type": "address"
                    },
                    {
                         "indexed": true,
                         "internalType": "address",
                         "name": "spender",
                         "type": "address"
                    },
                    {
                         "indexed": false,
                         "internalType": "uint160",
                         "name": "amount",
                         "type": "uint160"
                    },
                    {
                         "indexed": false,
                         "internalType": "uint48",
                         "name": "expiration",
                         "type": "uint48"
                    }
               ],
               "name": "Approval",
               "type": "event"
          },
          {
               "anonymous": false,
               "inputs": [
                    {
                         "indexed": true,
                         "internalType": "address",
                         "name": "owner",
                         "type": "address"
                    },
                    {
                         "indexed": false,
                         "internalType": "address",
                         "name": "token",
                         "type": "address"
                    },
                    {
                         "indexed": false,
                         "internalType": "address",
                         "name": "spender",
                         "type": "address"
                    }
               ],
               "name": "Lockdown",
               "type": "event"
          },
          {
               "anonymous": false,
               "inputs": [
                    {
                         "indexed": true,
                         "internalType": "address",
                         "name": "owner",
                         "type": "address"
                    },
                    {
                         "indexed": true,
                         "internalType": "address",
                         "name": "token",
                         "type": "address"
                    },
                    {
                         "indexed": true,
                         "internalType": "address",
                         "name": "spender",
                         "type": "address"
                    },
                    {
                         "indexed": false,
                         "internalType": "uint48",
                         "name": "newNonce",
                         "type": "uint48"
                    },
                    {
                         "indexed": false,
                         "internalType": "uint48",
                         "name": "oldNonce",
                         "type": "uint48"
                    }
               ],
               "name": "NonceInvalidation",
               "type": "event"
          },
          {
               "anonymous": false,
               "inputs": [
                    {
                         "indexed": true,
                         "internalType": "address",
                         "name": "owner",
                         "type": "address"
                    },
                    {
                         "indexed": true,
                         "internalType": "address",
                         "name": "token",
                         "type": "address"
                    },
                    {
                         "indexed": true,
                         "internalType": "address",
                         "name": "spender",
                         "type": "address"
                    },
                    {
                         "indexed": false,
                         "internalType": "uint160",
                         "name": "amount",
                         "type": "uint160"
                    },
                    {
                         "indexed": false,
                         "internalType": "uint48",
                         "name": "expiration",
                         "type": "uint48"
                    },
                    {
                         "indexed": false,
                         "internalType": "uint48",
                         "name": "nonce",
                         "type": "uint48"
                    }
               ],
               "name": "Permit",
               "type": "event"
          },
          {
               "anonymous": false,
               "inputs": [
                    {
                         "indexed": true,
                         "internalType": "address",
                         "name": "owner",
                         "type": "address"
                    },
                    {
                         "indexed": false,
                         "internalType": "uint256",
                         "name": "word",
                         "type": "uint256"
                    },
                    {
                         "indexed": false,
                         "internalType": "uint256",
                         "name": "mask",
                         "type": "uint256"
                    }
               ],
               "name": "UnorderedNonceInvalidation",
               "type": "event"
          },
          {
               "inputs": [],
               "name": "DOMAIN_SEPARATOR",
               "outputs": [
                    {
                         "internalType": "bytes32",
                         "name": "",
                         "type": "bytes32"
                    }
               ],
               "stateMutability": "view",
               "type": "function"
          },
          {
               "inputs": [
                    {
                         "internalType": "address",
                         "name": "",
                         "type": "address"
                    },
                    {
                         "internalType": "address",
                         "name": "",
                         "type": "address"
                    },
                    {
                         "internalType": "address",
                         "name": "",
                         "type": "address"
                    }
               ],
               "name": "allowance",
               "outputs": [
                    {
                         "internalType": "uint160",
                         "name": "amount",
                         "type": "uint160"
                    },
                    {
                         "internalType": "uint48",
                         "name": "expiration",
                         "type": "uint48"
                    },
                    {
                         "internalType": "uint48",
                         "name": "nonce",
                         "type": "uint48"
                    }
               ],
               "stateMutability": "view",
               "type": "function"
          },
          {
               "inputs": [
                    {
                         "internalType": "address",
                         "name": "token",
                         "type": "address"
                    },
                    {
                         "internalType": "address",
                         "name": "spender",
                         "type": "address"
                    },
                    {
                         "internalType": "uint160",
                         "name": "amount",
                         "type": "uint160"
                    },
                    {
                         "internalType": "uint48",
                         "name": "expiration",
                         "type": "uint48"
                    }
               ],
               "name": "approve",
               "outputs": [],
               "stateMutability": "nonpayable",
               "type": "function"
          },
          {
               "inputs": [
                    {
                         "internalType": "address",
                         "name": "token",
                         "type": "address"
                    },
                    {
                         "internalType": "address",
                         "name": "spender",
                         "type": "address"
                    },
                    {
                         "internalType": "uint48",
                         "name": "newNonce",
                         "type": "uint48"
                    }
               ],
               "name": "invalidateNonces",
               "outputs": [],
               "stateMutability": "nonpayable",
               "type": "function"
          },
          {
               "inputs": [
                    {
                         "internalType": "uint256",
                         "name": "wordPos",
                         "type": "uint256"
                    },
                    {
                         "internalType": "uint256",
                         "name": "mask",
                         "type": "uint256"
                    }
               ],
               "name": "invalidateUnorderedNonces",
               "outputs": [],
               "stateMutability": "nonpayable",
               "type": "function"
          },
          {
               "inputs": [
                    {
                         "components": [
                              {
                                   "internalType": "address",
                                   "name": "token",
                                   "type": "address"
                              },
                              {
                                   "internalType": "address",
                                   "name": "spender",
                                   "type": "address"
                              }
                         ],
                         "internalType": "struct IAllowanceTransfer.TokenSpenderPair[]",
                         "name": "approvals",
                         "type": "tuple[]"
                    }
               ],
               "name": "lockdown",
               "outputs": [],
               "stateMutability": "nonpayable",
               "type": "function"
          },
          {
               "inputs": [
                    {
                         "internalType": "address",
                         "name": "",
                         "type": "address"
                    },
                    {
                         "internalType": "uint256",
                         "name": "",
                         "type": "uint256"
                    }
               ],
               "name": "nonceBitmap",
               "outputs": [
                    {
                         "internalType": "uint256",
                         "name": "",
                         "type": "uint256"
                    }
               ],
               "stateMutability": "view",
               "type": "function"
          },
          {
               "inputs": [
                    {
                         "internalType": "address",
                         "name": "owner",
                         "type": "address"
                    },
                    {
                         "components": [
                              {
                                   "components": [
                                        {
                                             "internalType": "address",
                                             "name": "token",
                                             "type": "address"
                                        },
                                        {
                                             "internalType": "uint160",
                                             "name": "amount",
                                             "type": "uint160"
                                        },
                                        {
                                             "internalType": "uint48",
                                             "name": "expiration",
                                             "type": "uint48"
                                        },
                                        {
                                             "internalType": "uint48",
                                             "name": "nonce",
                                             "type": "uint48"
                                        }
                                   ],
                                   "internalType": "struct IAllowanceTransfer.PermitDetails[]",
                                   "name": "details",
                                   "type": "tuple[]"
                              },
                              {
                                   "internalType": "address",
                                   "name": "spender",
                                   "type": "address"
                              },
                              {
                                   "internalType": "uint256",
                                   "name": "sigDeadline",
                                   "type": "uint256"
                              }
                         ],
                         "internalType": "struct IAllowanceTransfer.PermitBatch",
                         "name": "permitBatch",
                         "type": "tuple"
                    },
                    {
                         "internalType": "bytes",
                         "name": "signature",
                         "type": "bytes"
                    }
               ],
               "name": "permit",
               "outputs": [],
               "stateMutability": "nonpayable",
               "type": "function"
          },
          {
               "inputs": [
                    {
                         "internalType": "address",
                         "name": "owner",
                         "type": "address"
                    },
                    {
                         "components": [
                              {
                                   "components": [
                                        {
                                             "internalType": "address",
                                             "name": "token",
                                             "type": "address"
                                        },
                                        {
                                             "internalType": "uint160",
                                             "name": "amount",
                                             "type": "uint160"
                                        },
                                        {
                                             "internalType": "uint48",
                                             "name": "expiration",
                                             "type": "uint48"
                                        },
                                        {
                                             "internalType": "uint48",
                                             "name": "nonce",
                                             "type": "uint48"
                                        }
                                   ],
                                   "internalType": "struct IAllowanceTransfer.PermitDetails",
                                   "name": "details",
                                   "type": "tuple"
                              },
                              {
                                   "internalType": "address",
                                   "name": "spender",
                                   "type": "address"
                              },
                              {
                                   "internalType": "uint256",
                                   "name": "sigDeadline",
                                   "type": "uint256"
                              }
                         ],
                         "internalType": "struct IAllowanceTransfer.PermitSingle",
                         "name": "permitSingle",
                         "type": "tuple"
                    },
                    {
                         "internalType": "bytes",
                         "name": "signature",
                         "type": "bytes"
                    }
               ],
               "name": "permit",
               "outputs": [],
               "stateMutability": "nonpayable",
               "type": "function"
          },
          {
               "inputs": [
                    {
                         "components": [
                              {
                                   "components": [
                                        {
                                             "internalType": "address",
                                             "name": "token",
                                             "type": "address"
                                        },
                                        {
                                             "internalType": "uint256",
                                             "name": "amount",
                                             "type": "uint256"
                                        }
                                   ],
                                   "internalType": "struct ISignatureTransfer.TokenPermissions",
                                   "name": "permitted",
                                   "type": "tuple"
                              },
                              {
                                   "internalType": "uint256",
                                   "name": "nonce",
                                   "type": "uint256"
                              },
                              {
                                   "internalType": "uint256",
                                   "name": "deadline",
                                   "type": "uint256"
                              }
                         ],
                         "internalType": "struct ISignatureTransfer.PermitTransferFrom",
                         "name": "permit",
                         "type": "tuple"
                    },
                    {
                         "components": [
                              {
                                   "internalType": "address",
                                   "name": "to",
                                   "type": "address"
                              },
                              {
                                   "internalType": "uint256",
                                   "name": "requestedAmount",
                                   "type": "uint256"
                              }
                         ],
                         "internalType": "struct ISignatureTransfer.SignatureTransferDetails",
                         "name": "transferDetails",
                         "type": "tuple"
                    },
                    {
                         "internalType": "address",
                         "name": "owner",
                         "type": "address"
                    },
                    {
                         "internalType": "bytes",
                         "name": "signature",
                         "type": "bytes"
                    }
               ],
               "name": "permitTransferFrom",
               "outputs": [],
               "stateMutability": "nonpayable",
               "type": "function"
          },
          {
               "inputs": [
                    {
                         "components": [
                              {
                                   "components": [
                                        {
                                             "internalType": "address",
                                             "name": "token",
                                             "type": "address"
                                        },
                                        {
                                             "internalType": "uint256",
                                             "name": "amount",
                                             "type": "uint256"
                                        }
                                   ],
                                   "internalType": "struct ISignatureTransfer.TokenPermissions[]",
                                   "name": "permitted",
                                   "type": "tuple[]"
                              },
                              {
                                   "internalType": "uint256",
                                   "name": "nonce",
                                   "type": "uint256"
                              },
                              {
                                   "internalType": "uint256",
                                   "name": "deadline",
                                   "type": "uint256"
                              }
                         ],
                         "internalType": "struct ISignatureTransfer.PermitBatchTransferFrom",
                         "name": "permit",
                         "type": "tuple"
                    },
                    {
                         "components": [
                              {
                                   "internalType": "address",
                                   "name": "to",
                                   "type": "address"
                              },
                              {
                                   "internalType": "uint256",
                                   "name": "requestedAmount",
                                   "type": "uint256"
                              }
                         ],
                         "internalType": "struct ISignatureTransfer.SignatureTransferDetails[]",
                         "name": "transferDetails",
                         "type": "tuple[]"
                    },
                    {
                         "internalType": "address",
                         "name": "owner",
                         "type": "address"
                    },
                    {
                         "internalType": "bytes",
                         "name": "signature",
                         "type": "bytes"
                    }
               ],
               "name": "permitTransferFrom",
               "outputs": [],
               "stateMutability": "nonpayable",
               "type": "function"
          },
          {
               "inputs": [
                    {
                         "components": [
                              {
                                   "components": [
                                        {
                                             "internalType": "address",
                                             "name": "token",
                                             "type": "address"
                                        },
                                        {
                                             "internalType": "uint256",
                                             "name": "amount",
                                             "type": "uint256"
                                        }
                                   ],
                                   "internalType": "struct ISignatureTransfer.TokenPermissions",
                                   "name": "permitted",
                                   "type": "tuple"
                              },
                              {
                                   "internalType": "uint256",
                                   "name": "nonce",
                                   "type": "uint256"
                              },
                              {
                                   "internalType": "uint256",
                                   "name": "deadline",
                                   "type": "uint256"
                              }
                         ],
                         "internalType": "struct ISignatureTransfer.PermitTransferFrom",
                         "name": "permit",
                         "type": "tuple"
                    },
                    {
                         "components": [
                              {
                                   "internalType": "address",
                                   "name": "to",
                                   "type": "address"
                              },
                              {
                                   "internalType": "uint256",
                                   "name": "requestedAmount",
                                   "type": "uint256"
                              }
                         ],
                         "internalType": "struct ISignatureTransfer.SignatureTransferDetails",
                         "name": "transferDetails",
                         "type": "tuple"
                    },
                    {
                         "internalType": "address",
                         "name": "owner",
                         "type": "address"
                    },
                    {
                         "internalType": "bytes32",
                         "name": "witness",
                         "type": "bytes32"
                    },
                    {
                         "internalType": "string",
                         "name": "witnessTypeString",
                         "type": "string"
                    },
                    {
                         "internalType": "bytes",
                         "name": "signature",
                         "type": "bytes"
                    }
               ],
               "name": "permitWitnessTransferFrom",
               "outputs": [],
               "stateMutability": "nonpayable",
               "type": "function"
          },
          {
               "inputs": [
                    {
                         "components": [
                              {
                                   "components": [
                                        {
                                             "internalType": "address",
                                             "name": "token",
                                             "type": "address"
                                        },
                                        {
                                             "internalType": "uint256",
                                             "name": "amount",
                                             "type": "uint256"
                                        }
                                   ],
                                   "internalType": "struct ISignatureTransfer.TokenPermissions[]",
                                   "name": "permitted",
                                   "type": "tuple[]"
                              },
                              {
                                   "internalType": "uint256",
                                   "name": "nonce",
                                   "type": "uint256"
                              },
                              {
                                   "internalType": "uint256",
                                   "name": "deadline",
                                   "type": "uint256"
                              }
                         ],
                         "internalType": "struct ISignatureTransfer.PermitBatchTransferFrom",
                         "name": "permit",
                         "type": "tuple"
                    },
                    {
                         "components": [
                              {
                                   "internalType": "address",
                                   "name": "to",
                                   "type": "address"
                              },
                              {
                                   "internalType": "uint256",
                                   "name": "requestedAmount",
                                   "type": "uint256"
                              }
                         ],
                         "internalType": "struct ISignatureTransfer.SignatureTransferDetails[]",
                         "name": "transferDetails",
                         "type": "tuple[]"
                    },
                    {
                         "internalType": "address",
                         "name": "owner",
                         "type": "address"
                    },
                    {
                         "internalType": "bytes32",
                         "name": "witness",
                         "type": "bytes32"
                    },
                    {
                         "internalType": "string",
                         "name": "witnessTypeString",
                         "type": "string"
                    },
                    {
                         "internalType": "bytes",
                         "name": "signature",
                         "type": "bytes"
                    }
               ],
               "name": "permitWitnessTransferFrom",
               "outputs": [],
               "stateMutability": "nonpayable",
               "type": "function"
          },
          {
               "inputs": [
                    {
                         "components": [
                              {
                                   "internalType": "address",
                                   "name": "from",
                                   "type": "address"
                              },
                              {
                                   "internalType": "address",
                                   "name": "to",
                                   "type": "address"
                              },
                              {
                                   "internalType": "uint160",
                                   "name": "amount",
                                   "type": "uint160"
                              },
                              {
                                   "internalType": "address",
                                   "name": "token",
                                   "type": "address"
                              }
                         ],
                         "internalType": "struct IAllowanceTransfer.AllowanceTransferDetails[]",
                         "name": "transferDetails",
                         "type": "tuple[]"
                    }
               ],
               "name": "transferFrom",
               "outputs": [],
               "stateMutability": "nonpayable",
               "type": "function"
          },
          {
               "inputs": [
                    {
                         "internalType": "address",
                         "name": "from",
                         "type": "address"
                    },
                    {
                         "internalType": "address",
                         "name": "to",
                         "type": "address"
                    },
                    {
                         "internalType": "uint160",
                         "name": "amount",
                         "type": "uint160"
                    },
                    {
                         "internalType": "address",
                         "name": "token",
                         "type": "address"
                    }
               ],
               "name": "transferFrom",
               "outputs": [],
               "stateMutability": "nonpayable",
               "type": "function"
          }
     ],
     "transactionHash": "0xd2c16d6115da0550c8ff37ce930b40d40fc1437ca677c976f31302f40f938b3f",
     "args": [],
     "numDeployments": 1,
     "solcInputHash": "6f18167336222307e95d88ad041b04e5",
     "bytecode": "0x60c0346100bb574660a052602081017f8cad95687ba82c2ce50e74f7b754645e5117c3a5bec8151c0726d5857980a86681527f9ac997416e8ff9d2ff6bebeb7149f65cdae5e32e2b90440b566bb3044041d36a60408301524660608301523060808301526080825260a082019180831060018060401b038411176100a55782604052519020608052611efc90816100c182396080518161161a015260a051816115f40152f35b634e487b7160e01b600052604160045260246000fd5b600080fdfe6040608081526004908136101561001557600080fd5b600090813560e01c80630d58b1db14610f8f578063137c29fe14610dd45780632a2d80d114610b695780632b67b570146109f257806330f28b7a1461092e5780633644e5151461090b57806336c78516146108c15780633ff9dcb11461085f5780634fe02b441461082157806365d9723c146106d257806387517c45146105dc578063927da10514610550578063cc53287f14610466578063edd9444b1461033f5763fe8ec1a7146100c657600080fd5b3461033b5760c036600319011261033b5767ffffffffffffffff928035848111610337576100f79036908301611281565b6024358581116103335761010e9036908401611250565b610116611161565b9160843588811161032f5761012e90369087016111f7565b95909860a43590811161032b5795989561014a913691016111f7565b969095815190610159826110c0565b606b9081835260209b8c917f5065726d697442617463685769746e6573735472616e7366657246726f6d2854838601527f6f6b656e5065726d697373696f6e735b5d207065726d69747465642c61646472868601527f657373207370656e6465722c75696e74323536206e6f6e63652c75696e74323560608601527f3620646561646c696e652c00000000000000000000000000000000000000000060808601528c8651958694825b87811061030957505050918084926102329694608b8097019081523781018d8482015203908101845201826110f8565b89815191012090855151996102468b6118ea565b9a8a5b8181106102db5750506102d8999a6102cf916102c38451928361026f8482018093611941565b0393610283601f19958681018352826110f8565b5190208a830151868c0151965193840197885260208801919091523360408801526060870152608086019490945260643560a086015292839060c0860190565b039081018352826110f8565b5190209361178b565b80f35b808d6102fe826102f86102f2610304968f5161137b565b516119f7565b9261137b565b5261191c565b610249565b90829495965080935081819301015182828a01015201918e9187959493610202565b8880fd5b8780fd5b8480fd5b8380fd5b5080fd5b50913461033b57608036600319011261033b5767ffffffffffffffff908035828111610337576103729036908301611281565b602435838111610333576103899036908401611250565b939092610394611161565b91606435908111610462576103ab913691016111f7565b949093835151976103bb896118ea565b98885b8181106104465750506102d8979881516103ee816103e0602082018095611941565b03601f1981018352826110f8565b5190206020860151828701519083519260208401947ffcf35f5ac6a2c28868dc44c302166470266239195f02b0ee408334829333b7668652840152336060840152608083015260a082015260a081526102cf816110dc565b808b6102fe826102f86102f261045d968d5161137b565b6103be565b8680fd5b50823461054c57602090816003193601126103375780359067ffffffffffffffff82116103335761049991369101611250565b929091845b8481106104a9578580f35b806104bf6104ba60019388886114a1565b6114b1565b6104d4846104ce848a8a6114a1565b016114b1565b338952838552858920916001600160a01b0380911692838b528652868a20911690818a52855285892073ffffffffffffffffffffffffffffffffffffffff1981541690558551918252848201527f89b1add15eff56b3dfe299ad94e01f2b52fbcb80ae1a3baea6ae8c04cb2b98a4853392a20161049e565b8280fd5b503461033b57606036600319011261033b576105d88161056e611135565b9361057761114b565b61057f611161565b6001600160a01b03968716835260016020908152848420928816845291825283832090871683528152919020549251938316845260a083901c65ffffffffffff169084015260d09190911c604083015281906060820190565b0390f35b503461033b57608036600319011261033b576105f6611135565b906105ff61114b565b91610608611161565b65ffffffffffff926064358481169081810361032f5765ffffffffffff60a01b947fda9fa7c1b00402c17d0161b249b1ab8bbec047c5a52207b9c112deffd817036b94338a5260016020527fffffffffffff0000000000000000000000000000000000000000000000000000858b20986001600160a01b03809416998a8d5260205283878d209b169a8b8d52602052868c209486156000146106ca57504216925b8454921697889360a01b16911617179055815193845260208401523392a480f35b9050926106a9565b50823461054c57606036600319011261054c576106ed611135565b906106f661114b565b9265ffffffffffff604435818116939084810361032f5733885260209160018352848920966001600160a01b0380911697888b528452858a20981697888a5283528489205460d01c93848711156108125761ffff9085840316116107eb5750907f55eb90d810e1700b35a8e7e25395ff7f2b2259abd7415ca2284dfb1c246418f393929133895260018252838920878a528252838920888a5282528389209079ffffffffffffffffffffffffffffffffffffffffffffffffffff7fffffffffffff000000000000000000000000000000000000000000000000000083549260d01b16911617905582519485528401523392a480f35b84517f24d35a26000000000000000000000000000000000000000000000000000000008152fd5b508451633ab3447f60e11b8152fd5b503461033b578060031936011261033b57806020926001600160a01b03610846611135565b1681528084528181206024358252845220549051908152f35b50823461054c578160031936011261054c577f3704902f963766a4e561bbaab6e6cdc1b1dd12f6e9e99648da8843b3f46b918d90359160243533855284602052818520848652602052818520818154179055815193845260208401523392a280f35b8234610908576080366003190112610908576108db611135565b6108e361114b565b6108eb611161565b606435916001600160a01b0383168303610333576102d8936113a5565b80fd5b503461033b578160031936011261033b576020906109276115f1565b9051908152f35b5082903461054c5761010036600319011261054c5761094c3661118b565b90806083193601126103375761096061111a565b9160e43567ffffffffffffffff81116109ee576102d894610983913691016111f7565b93909261099083516119f7565b6020840151828501519083519260208401947f939c21a48a8dbe3a9a2404a1d46691e4d39f6583d6ec6b35714604c986d801068652840152336060840152608083015260a082015260a081526109e5816110dc565b519020916116f8565b8580fd5b50913461033b5761010036600319011261033b57610a0e611135565b366023190160c08112610337576080855191610a29836110a4565b1261033757845190610a3a82611072565b6001600160a01b03916024358381168103610462578152604435838116810361046257602082015265ffffffffffff606435818116810361032f57888301526084359081168103610462576060820152815260a4359382851685036109ee576020820194855260c4359087830182815260e43567ffffffffffffffff811161032b57610ac990369084016111f7565b929093804211610b53575050918591610b436102d8999a610b4995610aee885161196e565b90898c511690519083519260208401947ff3841cd1ff0085026a6327b620b67997ce40f282c88a8e905a7a5626e310f3d086528401526060830152608082015260808152610b3b816110c0565b5190206116ac565b91611a5d565b51925116916114c5565b602492508a519163cd21db4f60e01b8352820152fd5b50913461033b57606060031993818536011261033757610b87611135565b9260249081359267ffffffffffffffff9788851161032f57859085360301126104625780519785890189811082821117610dc25782528483013581811161032b578501903660238301121561032b578382013591610be483611225565b90610bf1855192836110f8565b838252602093878584019160071b83010191368311610dbe578801905b828210610d61575050508a526044610c27868801611177565b96838c01978852013594838b0191868352604435908111610d5d57610c4f90369087016111f7565b959096804211610d4b575050508998995151610c6a816118ea565b908b5b818110610d1e57505092889492610b4392610ceb97958351610c96816103e08682018095611941565b519020906001600160a01b039a8b8b51169151928551948501957faf1b0d30d2cab0380e68f0689007e3254993c596f2fdd0aaa7f4d04f794408638752850152830152608082015260808152610b3b816110c0565b51169082515192845b848110610cff578580f35b80610d188585610d12600195875161137b565b516114c5565b01610cf4565b80610d39610d338e9f9e93610d43945161137b565b5161196e565b6102fe828661137b565b9b9a9b610c6d565b85519163cd21db4f60e01b8352820152fd5b8a80fd5b608082360312610dbe57856080918851610d7a81611072565b610d8385611177565b8152610d90838601611177565b83820152610d9f8a860161123d565b8a8201528d610daf81870161123d565b90820152815201910190610c0e565b8c80fd5b8489604186634e487b7160e01b835252fd5b503461033b5761014036600319011261033b57610df03661118b565b908060831936011261054c57610e0461111a565b67ffffffffffffffff9290610104358481116109ee57610e2790369088016111f7565b9690946101243590811161046257610e41913691016111f7565b949093805197610e50896110c0565b606490818a526020937f5065726d69745769746e6573735472616e7366657246726f6d28546f6b656e50858c01527f65726d697373696f6e73207065726d69747465642c6164647265737320737065848c01527f6e6465722c75696e74323536206e6f6e63652c75696e7432353620646561646c60608c01527f696e652c0000000000000000000000000000000000000000000000000000000060808c015283519a8a5b848110610f7c57505060846109e5938c8c856102d89e9f96610f2b96868501848152378201908482015203908101845201826110f8565b838151910120926103e0610f3f87516119f7565b8783015185890151955193840196875260208701919091523360408701526060860152608085019390935260e43560a085015291829060c0850190565b8181018701518d82018801528601610ef4565b50823461054c5760208060031936011261033757813567ffffffffffffffff928382116109ee57366023830112156109ee57810135928311610333576024906007368386831b8401011161046257865b858110610fea578780f35b80821b8301906080602319833603011261032b5761106c88876001946060835161101381611072565b61104f60846110238d8601611177565b9485845261103360448201611177565b809785015261104460648201611177565b809885015201611177565b91829101526001600160a01b0380808093169516931691166113a5565b01610fdf565b6080810190811067ffffffffffffffff82111761108e57604052565b634e487b7160e01b600052604160045260246000fd5b6060810190811067ffffffffffffffff82111761108e57604052565b60a0810190811067ffffffffffffffff82111761108e57604052565b60c0810190811067ffffffffffffffff82111761108e57604052565b90601f8019910116810190811067ffffffffffffffff82111761108e57604052565b60c435906001600160a01b038216820361113057565b600080fd5b600435906001600160a01b038216820361113057565b602435906001600160a01b038216820361113057565b604435906001600160a01b038216820361113057565b35906001600160a01b038216820361113057565b6003190190608082126111305760408051906111a6826110a4565b8082941261113057805181810181811067ffffffffffffffff82111761108e5782526004356001600160a01b0381168103611130578152602435602082015282526044356020830152606435910152565b9181601f840112156111305782359167ffffffffffffffff8311611130576020838186019501011161113057565b67ffffffffffffffff811161108e5760051b60200190565b359065ffffffffffff8216820361113057565b9181601f840112156111305782359167ffffffffffffffff8311611130576020808501948460061b01011161113057565b91909160608184031261113057604080519161129c836110a4565b8294813567ffffffffffffffff9081811161113057830182601f820112156111305780356112c981611225565b926112d6875194856110f8565b818452602094858086019360061b85010193818511611130579086899897969594939201925b848410611319575050505050855280820135908501520135910152565b909192939495969784830312611130578851908982019082821085831117611366578a928992845261134a87611177565b81528287013583820152815201930191908897969594936112fc565b60246000634e487b7160e01b81526041600452fd5b805182101561138f5760209160051b010190565b634e487b7160e01b600052603260045260246000fd5b9291926001600160a01b03604060008284168152600160205282828220961695868252602052818120338252602052209485549565ffffffffffff8760a01c16804211611470575082871696838803611409575b505061140795501692611e03565b565b878484161160001461144657602488604051907ff96fb0710000000000000000000000000000000000000000000000000000000082526004820152fd5b73ffffffffffffffffffffffffffffffffffffffff1984846114079a0316911617905538806113f9565b602490604051907fd81b2f2e0000000000000000000000000000000000000000000000000000000082526004820152fd5b919081101561138f5760061b0190565b356001600160a01b03811681036111305790565b9065ffffffffffff90816060840151166001600160a01b03908185511694826020820151169280866040809401511695169560009187835260016020528383208984526020528383209916988983526020528282209184835460d01c036115e15791856115cb94927fc6a377bfc4eb120024a8ac08eef205be16b817020812c73223e81d1bdb9708ec989796945087156000146115d05765ffffffffffff60a01b9042165b60a01b167fffffffffffff00000000000000000000000000000000000000000000000000006001860160d01b161717905551938493849160409194936001600160a01b03606085019616845265ffffffffffff809216602085015216910152565b0390a4565b5065ffffffffffff60a01b8761156a565b60048451633ab3447f60e11b8152fd5b467f00000000000000000000000000000000000000000000000000000000000000000361163c577f000000000000000000000000000000000000000000000000000000000000000090565b60405160208101907f8cad95687ba82c2ce50e74f7b754645e5117c3a5bec8151c0726d5857980a86682527f9ac997416e8ff9d2ff6bebeb7149f65cdae5e32e2b90440b566bb3044041d36a6040820152466060820152306080820152608081526116a6816110c0565b51902090565b6116b46115f1565b906040519060208201927f1901000000000000000000000000000000000000000000000000000000000000845260228301526042820152604281526116a681611072565b9192909360a435936040840151804211611773575060208451015180861161175b5750918591610b436117389461173360208801518661189c565b6116ac565b6001600160a01b0380915151169260843591821682036111305761140793611e03565b60249060405190633728b83d60e01b82526004820152fd5b6024906040519063cd21db4f60e01b82526004820152fd5b959093958051519560409283830151804211611885575084880361185c576117c2918691610b4360209b6117338d8801518661189c565b60005b8681106117d6575050505050505050565b6117e181835161137b565b51886117ee83878a6114a1565b01359089810151808311611845575091818888886001968596611818575b505050505050016117c5565b61183a95611834926001600160a01b036104ba935116956114a1565b91611e03565b80388888888361180c565b602490865190633728b83d60e01b82526004820152fd5b600484517fff633a38000000000000000000000000000000000000000000000000000000008152fd5b60249085519063cd21db4f60e01b82526004820152fd5b906001600160a01b03600160ff83161b9216600052600060205260406000209060081c60005260205260406000208181541880915516156118d957565b6004604051633ab3447f60e11b8152fd5b906118f482611225565b61190160405191826110f8565b8281528092611912601f1991611225565b0190602036910137565b600019811461192b5760010190565b634e487b7160e01b600052601160045260246000fd5b805160208092019160005b82811061195a575050505090565b83518552938101939281019260010161194c565b60405160208101917f65626cad6cb96493bf6f5ebea28756c966f023ab9e8a83a7101849d5573b367883526001600160a01b038082511660408401526020820151166060830152606065ffffffffffff9182604082015116608085015201511660a082015260a0815260c0810181811067ffffffffffffffff82111761108e5760405251902090565b6040516020808201927f618358ac3db8dc274f0cd8829da7e234bd48cd73c4a740aede1adec9846d06a184526001600160a01b03815116604084015201516060820152606081526116a681611072565b9190826040910312611130576020823592013590565b909290916000823b611ca9575060418403611c2157611a7e84840184611a47565b9190946040101561138f576080600091604060ff96013560f81c935b60409788519283526020978896168684015288830152606082015282805260015afa15611c1657600051835184810181811067ffffffffffffffff82111761108e578552601081527f797979797979797979797979797979790000000000000000000000000000000084820152845190848201927e7150be0000000000000000000000000000000000000000000000000000000084526001600160a01b038091169485602485015216948560448401526060606484015281519182608485015260005b838110611c02575050509181611b9160a4828660008381998299010152601f801991011681010360848101845201826110f8565b51906a636f6e736f6c652e6c6f675afa508015611bd95703611bb05750565b600490517f815e1d64000000000000000000000000000000000000000000000000000000008152fd5b600483517f8baa579f000000000000000000000000000000000000000000000000000000008152fd5b81810183015185820160a401528201611b5d565b82513d6000823e3d90fd5b91604084929414600014611c7f57611c3b91810190611a47565b929092601b7f7fffffffffffffffffffffffffffffffffffffffffffffffffffffffffffffff82169160ff1c019260ff841161192b57608060009160ff9593611a9a565b60046040517f4be6321b000000000000000000000000000000000000000000000000000000008152fd5b92938092602092956001600160a01b0360646040518097819682957f1626ba7e000000000000000000000000000000000000000000000000000000009c8d85526004850152604060248501528160448501528484013781810183018a9052601f01601f19168101030192165afa908115611df8578291611d7a575b507fffffffff0000000000000000000000000000000000000000000000000000000091501603611d5057565b60046040517fb0669cbc000000000000000000000000000000000000000000000000000000008152fd5b90506020813d8211611df0575b81611d94602093836110f8565b8101031261033b5751907fffffffff000000000000000000000000000000000000000000000000000000008216820361090857507fffffffff000000000000000000000000000000000000000000000000000000009038611d24565b3d9150611d87565b6040513d84823e3d90fd5b9160008093602095606494604051947f23b872dd0000000000000000000000000000000000000000000000000000000086526001600160a01b03809216600487015216602485015260448401525af13d15601f3d1160016000511416171615611e6857565b60646040517f08c379a000000000000000000000000000000000000000000000000000000000815260206004820152601460248201527f5452414e534645525f46524f4d5f4641494c45440000000000000000000000006044820152fdfea26469706673582212209ab9e0403987def0399cf211fa750055c88f6044b7b1bad1b8e0c672c5aee10b64736f6c63430008110033",
     "devdoc": {
          "details": "Users must approve Permit2 before calling any of the transfer functions.",
          "errors": {
               "AllowanceExpired(uint256)": [
                    {
                         "params": {
                              "deadline": "The timestamp at which the allowed amount is no longer valid"
                         }
                    }
               ],
               "InsufficientAllowance(uint256)": [
                    {
                         "params": {
                              "amount": "The maximum amount allowed"
                         }
                    }
               ],
               "InvalidAmount(uint256)": [
                    {
                         "params": {
                              "maxAmount": "The maximum amount a spender can request to transfer"
                         }
                    }
               ],
               "LengthMismatch()": [
                    {
                         "details": "If the spender does not need to transfer the number of tokens permitted, the spender can request amount 0 to be transferred"
                    }
               ],
               "SignatureExpired(uint256)": [
                    {
                         "params": {
                              "signatureDeadline": "The timestamp at which a signature is no longer valid"
                         }
                    }
               ]
          },
          "kind": "dev",
          "methods": {
               "DOMAIN_SEPARATOR()": {
                    "details": "Uses cached version if chainid and address are unchanged from construction."
               },
               "approve(address,address,uint160,uint48)": {
                    "details": "The packed allowance also holds a nonce, which will stay unchanged in approveSetting amount to type(uint160).max sets an unlimited approval",
                    "params": {
                         "amount": "The approved amount of the token",
                         "expiration": "The timestamp at which the approval is no longer valid",
                         "spender": "The spender address to approve",
                         "token": "The token to approve"
                    }
               },
               "invalidateNonces(address,address,uint48)": {
                    "details": "Can't invalidate more than 2**16 nonces per transaction.",
                    "params": {
                         "newNonce": "The new nonce to set. Invalidates all nonces less than it.",
                         "spender": "The spender to invalidate nonces for",
                         "token": "The token to invalidate nonces for"
                    }
               },
               "invalidateUnorderedNonces(uint256,uint256)": {
                    "details": "The wordPos is maxed at type(uint248).max",
                    "params": {
                         "mask": "A bitmap masked against msg.sender's current bitmap at the word position",
                         "wordPos": "A number to index the nonceBitmap at"
                    }
               },
               "lockdown((address,address)[])": {
                    "params": {
                         "approvals": "Array of approvals to revoke."
                    }
               },
               "permit(address,((address,uint160,uint48,uint48),address,uint256),bytes)": {
                    "details": "May fail if the owner's nonce was invalidated in-flight by invalidateNonce",
                    "params": {
                         "owner": "The owner of the tokens being approved",
                         "permitSingle": "Data signed over by the owner specifying the terms of approval",
                         "signature": "The owner's signature over the permit data"
                    }
               },
               "permit(address,((address,uint160,uint48,uint48)[],address,uint256),bytes)": {
                    "details": "May fail if the owner's nonce was invalidated in-flight by invalidateNonce",
                    "params": {
                         "owner": "The owner of the tokens being approved",
                         "permitBatch": "Data signed over by the owner specifying the terms of approval",
                         "signature": "The owner's signature over the permit data"
                    }
               },
               "permitTransferFrom(((address,uint256),uint256,uint256),(address,uint256),address,bytes)": {
                    "details": "Reverts if the requested amount is greater than the permitted signed amount",
                    "params": {
                         "owner": "The owner of the tokens to transfer",
                         "permit": "The permit data signed over by the owner",
                         "signature": "The signature to verify",
                         "transferDetails": "The spender's requested transfer details for the permitted token"
                    }
               },
               "permitTransferFrom(((address,uint256)[],uint256,uint256),(address,uint256)[],address,bytes)": {
                    "params": {
                         "owner": "The owner of the tokens to transfer",
                         "permit": "The permit data signed over by the owner",
                         "signature": "The signature to verify",
                         "transferDetails": "Specifies the recipient and requested amount for the token transfer"
                    }
               },
               "permitWitnessTransferFrom(((address,uint256),uint256,uint256),(address,uint256),address,bytes32,string,bytes)": {
                    "details": "The witness type string must follow EIP712 ordering of nested structs and must include the TokenPermissions type definitionReverts if the requested amount is greater than the permitted signed amount",
                    "params": {
                         "owner": "The owner of the tokens to transfer",
                         "permit": "The permit data signed over by the owner",
                         "signature": "The signature to verify",
                         "transferDetails": "The spender's requested transfer details for the permitted token",
                         "witness": "Extra data to include when checking the user signature",
                         "witnessTypeString": "The EIP-712 type definition for remaining string stub of the typehash"
                    }
               },
               "permitWitnessTransferFrom(((address,uint256)[],uint256,uint256),(address,uint256)[],address,bytes32,string,bytes)": {
                    "details": "The witness type string must follow EIP712 ordering of nested structs and must include the TokenPermissions type definition",
                    "params": {
                         "owner": "The owner of the tokens to transfer",
                         "permit": "The permit data signed over by the owner",
                         "signature": "The signature to verify",
                         "transferDetails": "Specifies the recipient and requested amount for the token transfer",
                         "witness": "Extra data to include when checking the user signature",
                         "witnessTypeString": "The EIP-712 type definition for remaining string stub of the typehash"
                    }
               },
               "transferFrom((address,address,uint160,address)[])": {
                    "details": "Requires the from addresses to have approved at least the desired amount of tokens to msg.sender.",
                    "params": {
                         "transferDetails": "Array of owners, recipients, amounts, and tokens for the transfers"
                    }
               },
               "transferFrom(address,address,uint160,address)": {
                    "details": "Requires the from address to have approved at least the desired amount of tokens to msg.sender.",
                    "params": {
                         "amount": "The amount of the token to transfer",
                         "from": "The address to transfer from",
                         "to": "The address of the recipient",
                         "token": "The token address to transfer"
                    }
               }
          },
          "version": 1
     },
     "userdoc": {
          "errors": {
               "AllowanceExpired(uint256)": [
                    {
                         "notice": "Thrown when an allowance on a token has expired."
                    }
               ],
               "ExcessiveInvalidation()": [
                    {
                         "notice": "Thrown when too many nonces are invalidated."
                    }
               ],
               "InsufficientAllowance(uint256)": [
                    {
                         "notice": "Thrown when an allowance on a token has been depleted."
                    }
               ],
               "InvalidAmount(uint256)": [
                    {
                         "notice": "Thrown when the requested amount for a transfer is larger than the permissioned amount"
                    }
               ],
               "InvalidContractSignature()": [
                    {
                         "notice": "Thrown when the recovered contract signature is incorrect"
                    }
               ],
               "InvalidNonce()": [
                    {
                         "notice": "Thrown when validating that the inputted nonce has not been used"
                    }
               ],
               "InvalidSignature()": [
                    {
                         "notice": "Thrown when the recovered signer is equal to the zero address"
                    }
               ],
               "InvalidSignatureLength()": [
                    {
                         "notice": "Thrown when the passed in signature is not a valid length"
                    }
               ],
               "InvalidSigner()": [
                    {
                         "notice": "Thrown when the recovered signer does not equal the claimedSigner"
                    }
               ],
               "LengthMismatch()": [
                    {
                         "notice": "Thrown when the number of tokens permissioned to a spender does not match the number of tokens being transferred"
                    }
               ],
               "SignatureExpired(uint256)": [
                    {
                         "notice": "Thrown when validating an inputted signature that is stale"
                    }
               ]
          },
          "events": {
               "Approval(address,address,address,uint160,uint48)": {
                    "notice": "Emits an event when the owner successfully sets permissions on a token for the spender."
               },
               "Lockdown(address,address,address)": {
                    "notice": "Emits an event when the owner sets the allowance back to 0 with the lockdown function."
               },
               "NonceInvalidation(address,address,address,uint48,uint48)": {
                    "notice": "Emits an event when the owner successfully invalidates an ordered nonce."
               },
               "Permit(address,address,address,uint160,uint48,uint48)": {
                    "notice": "Emits an event when the owner successfully sets permissions using a permit signature on a token for the spender."
               },
               "UnorderedNonceInvalidation(address,uint256,uint256)": {
                    "notice": "Emits an event when the owner successfully invalidates an unordered nonce."
               }
          },
          "kind": "user",
          "methods": {
               "DOMAIN_SEPARATOR()": {
                    "notice": "Returns the domain separator for the current chain."
               },
               "allowance(address,address,address)": {
                    "notice": "Maps users to tokens to spender addresses and information about the approval on the token"
               },
               "approve(address,address,uint160,uint48)": {
                    "notice": "Approves the spender to use up to amount of the specified token up until the expiration"
               },
               "invalidateNonces(address,address,uint48)": {
                    "notice": "Invalidate nonces for a given (token, spender) pair"
               },
               "invalidateUnorderedNonces(uint256,uint256)": {
                    "notice": "Invalidates the bits specified in mask for the bitmap at the word position"
               },
               "lockdown((address,address)[])": {
                    "notice": "Enables performing a \"lockdown\" of the sender's Permit2 identity by batch revoking approvals"
               },
               "nonceBitmap(address,uint256)": {
                    "notice": "A map from token owner address and a caller specified word index to a bitmap. Used to set bits in the bitmap to prevent against signature replay protection"
               },
               "permit(address,((address,uint160,uint48,uint48),address,uint256),bytes)": {
                    "notice": "Permit a spender to a given amount of the owners token via the owner's EIP-712 signature"
               },
               "permit(address,((address,uint160,uint48,uint48)[],address,uint256),bytes)": {
                    "notice": "Permit a spender to the signed amounts of the owners tokens via the owner's EIP-712 signature"
               },
               "permitTransferFrom(((address,uint256),uint256,uint256),(address,uint256),address,bytes)": {
                    "notice": "Transfers a token using a signed permit message"
               },
               "permitTransferFrom(((address,uint256)[],uint256,uint256),(address,uint256)[],address,bytes)": {
                    "notice": "Transfers multiple tokens using a signed permit message"
               },
               "permitWitnessTransferFrom(((address,uint256),uint256,uint256),(address,uint256),address,bytes32,string,bytes)": {
                    "notice": "Transfers a token using a signed permit messageIncludes extra data provided by the caller to verify signature over"
               },
               "permitWitnessTransferFrom(((address,uint256)[],uint256,uint256),(address,uint256)[],address,bytes32,string,bytes)": {
                    "notice": "Transfers multiple tokens using a signed permit messageIncludes extra data provided by the caller to verify signature over"
               },
               "transferFrom((address,address,uint160,address)[])": {
                    "notice": "Transfer approved tokens in a batch"
               },
               "transferFrom(address,address,uint160,address)": {
                    "notice": "Transfer approved tokens from one address to another"
               }
          },
          "notice": "Permit2 handles signature-based transfers in SignatureTransfer and allowance-based transfers in AllowanceTransfer.",
          "version": 1
     },
     "storageLayout": {
          "storage": [
               {
                    "astId": 5958,
                    "contract": "contracts/permit2/Permit2.sol:Permit2",
                    "label": "nonceBitmap",
                    "offset": 0,
                    "slot": "0",
                    "type": "t_mapping(t_address,t_mapping(t_uint256,t_uint256))"
               },
               {
                    "astId": 5295,
                    "contract": "contracts/permit2/Permit2.sol:Permit2",
                    "label": "allowance",
                    "offset": 0,
                    "slot": "1",
                    "type": "t_mapping(t_address,t_mapping(t_address,t_mapping(t_address,t_struct(PackedAllowance)6456_storage)))"
               }
          ],
          "types": {
               "t_address": {
                    "encoding": "inplace",
                    "label": "address",
                    "numberOfBytes": "20"
               },
               "t_mapping(t_address,t_mapping(t_address,t_mapping(t_address,t_struct(PackedAllowance)6456_storage)))": {
                    "encoding": "mapping",
                    "key": "t_address",
                    "label": "mapping(address => mapping(address => mapping(address => struct IAllowanceTransfer.PackedAllowance)))",
                    "numberOfBytes": "32",
                    "value": "t_mapping(t_address,t_mapping(t_address,t_struct(PackedAllowance)6456_storage))"
               },
               "t_mapping(t_address,t_mapping(t_address,t_struct(PackedAllowance)6456_storage))": {
                    "encoding": "mapping",
                    "key": "t_address",
                    "label": "mapping(address => mapping(address => struct IAllowanceTransfer.PackedAllowance))",
                    "numberOfBytes": "32",
                    "value": "t_mapping(t_address,t_struct(PackedAllowance)6456_storage)"
               },
               "t_mapping(t_address,t_mapping(t_uint256,t_uint256))": {
                    "encoding": "mapping",
                    "key": "t_address",
                    "label": "mapping(address => mapping(uint256 => uint256))",
                    "numberOfBytes": "32",
                    "value": "t_mapping(t_uint256,t_uint256)"
               },
               "t_mapping(t_address,t_struct(PackedAllowance)6456_storage)": {
                    "encoding": "mapping",
                    "key": "t_address",
                    "label": "mapping(address => struct IAllowanceTransfer.PackedAllowance)",
                    "numberOfBytes": "32",
                    "value": "t_struct(PackedAllowance)6456_storage"
               },
               "t_mapping(t_uint256,t_uint256)": {
                    "encoding": "mapping",
                    "key": "t_uint256",
                    "label": "mapping(uint256 => uint256)",
                    "numberOfBytes": "32",
                    "value": "t_uint256"
               },
               "t_struct(PackedAllowance)6456_storage": {
                    "encoding": "inplace",
                    "label": "struct IAllowanceTransfer.PackedAllowance",
                    "members": [
                         {
                              "astId": 6451,
                              "contract": "contracts/permit2/Permit2.sol:Permit2",
                              "label": "amount",
                              "offset": 0,
                              "slot": "0",
                              "type": "t_uint160"
                         },
                         {
                              "astId": 6453,
                              "contract": "contracts/permit2/Permit2.sol:Permit2",
                              "label": "expiration",
                              "offset": 20,
                              "slot": "0",
                              "type": "t_uint48"
                         },
                         {
                              "astId": 6455,
                              "contract": "contracts/permit2/Permit2.sol:Permit2",
                              "label": "nonce",
                              "offset": 26,
                              "slot": "0",
                              "type": "t_uint48"
                         }
                    ],
                    "numberOfBytes": "32"
               },
               "t_uint160": {
                    "encoding": "inplace",
                    "label": "uint160",
                    "numberOfBytes": "20"
               },
               "t_uint256": {
                    "encoding": "inplace",
                    "label": "uint256",
                    "numberOfBytes": "32"
               },
               "t_uint48": {
                    "encoding": "inplace",
                    "label": "uint48",
                    "numberOfBytes": "6"
               }
          }
     }
}